S014000072656C656173652F6F757465722E733139A1
S315200000000248854600F01EFFFEE7000000C00120E2
S3152000001070B50D460446164603F00EFF284600F03E
S31520000020C5FC014604F11C0003F0D2FE174B2360E9
S315200000301C33E361164B84F824501978A6620025F8
S31520000040012284F8255084F8265084F82C20D1B13A
S31520000050104804F07FF984F82C500F4804F086F9F4
S315200000600121A06A01F048FD02210546A06A01F09F
S3152000007043FD05B128B9094804F06CF9002384F83A
S315200000802C30204670BD1A70E7E700BFC053002011
S315200000905C5E002068510020A1510020B451002050
S315200000A090F82C3010B5044623B9BDE810400E4810
S315200000B004F050B990F825308B4204D1BDE81040A9
S315200000C00A4804F053B980F8251051B1084804F0C5
S315200000D04DF994F82520A06A0121BDE8104001F0D1
S315200000E0E1BC0448F3E700BFDF510020F8510020AF
S315200000F01B5200203552002090F82C3013B50446B0
S315200001002BB91B4802B0BDE8104004F023B990F883
S3152000011024300BB91748F5E790F826308B4205D1E5
S31520000120154802B0BDE8104004F020B980F826102A
S31520000130D1B1124804F01AF994F8240000F036FCE4
S3152000014001238DF8043000238DF8003002AA12E92D
S31520000150060000F0EDFA94F82620A06A022102B0EB
S31520000160BDE8104001F09EBC054804F0FFF8F2E718
S31520000170DF51002051520020F851002090520020DB
S31520000180C252002090F82C3010B5044623B9BDE8A1
S3152000019010400E4804F0DEB890F826308B4204D189
S315200001A0BDE810400A4804F0E1B880F8261051B1A5
S315200001B0084804F0DBF894F82620A06A0221BDE85E
S315200001C0104001F06FBC0448F3E700BFDF51002068
S315200001D0F8510020E85200200353002090F82C30DC
S315200001E010B5044623B91548BDE8104004F0B2B84E
S315200001F0002000F0DBFB00F000F9E8B101790129CD
S3152000020004D194F824304BB10D48EDE7022913D1DF
S3152000021094F824300BB90B48E6E700212046FFF777
S31520000220B1FF94F82620A06A022101F03BFC20466B
S31520000230BDE8104003F022BE10BD00BF20530020B1
S315200002405253002087530020A0F11C00C6E790F8E7
S315200002502500704790F82600704790F82C007047CC
S3152000026082B00023019342F6DF62019B934203D8BA
S31520000270019B01330193F8E702B0704707B50023CD
S315200002800193019B834204D2FFF7EAFF019B0133CE
S31520000290F6E703B05DF804FB07B500230193019B45
S315200002A0834206D20B7823B1FFF7DAFF019B013395
S315200002B0F4E703B05DF804FB37B5002305460C468A
S315200002C00193019BAB420CD2A3680BB904F049FB06
S315200002D0E3682046984720B1FFF7C2FF019B013310
S315200002E0EEE703B030BD000003680A781B789A4217
S315200002F006D1436818784B78C31A5842584170473C
S3152000030000207047022A034606D0032A02D0012A7B
S3152000031000D101600020704703C983E80300F9E794
S3152000032003680A781B789A4206D1436818784B7876
S31520000330C31A58425841704700207047022A034684
S3152000034006D0032A02D0012A00D10160002070477E
S3152000035003C983E80300F9E7036818684B68C31AE2
S31520000360584258417047022A06D0032A02D0012A51
S3152000037000D10160002070470B680360FAE702880D
S315200003800B889A4209D142884B889A4205D18088A7
S315200003908B88C31A58425841704700207047C1F3D2
S315200003A081428270C1F301420180C270C1F30352BF
S315200003B0C1F3036102714171704782B002AB03E958
S315200003C003009DF802309DF803009B04000400F40E
S315200003D0403003F440230343BDF8000003439DF857
S315200003E00500000600F0706003439DF80400000538
S315200003F000F47000184302B0704700F5484078308A
S31520000400704700F548407830704744307047443094
S315200004107047124B10B5036000F54843044670330D
S315200004201A6812B1013A1A60FAE7D4F82C341BB1D3
S31520000430013BC4F82C34F8E72046094B40F8243F0A
S3152000044003F0F0FCA36913B1013BA361FAE704F1C1
S315200004501C0000F071FE204610BD00BF8C56002007
S31520000460C05B00200148FFF7D4BF00BF705E0020AC
S315200004700420704730B585B0002302938B680C4664
S3152000048000F5866533B1022268469847E3680393F0
S31520000490A36802936946284600F045FC0446684650
S315200004A000F038FC204605B030BD10B586B00DF101
S315200004B0070302930DF1060303930A4B8DF80710E9
S315200004C0059302A9084B8DF8062000F58660049353
S315200004D000F029FC044602A800F01CFC204606B0C9
S315200004E010BD00BFE9020020050300202DE9F04FD2
S315200004F0ADF59D4D85B00DF59D4310336FF49D48A8
S315200005000DF51D54103403F808100DF10E070DF1EA
S315200005100F03C4E900372F4BE36000F5866A2E4BA4
S31520000520A3600646214650468DF80E2000F0FBFBC0
S315200005300546204600F0EEFB9DBB4FF41D5B294689
S315200005405A46204604F0DCF90DF59D4310334FF052
S31520000550000913F8083023704FF000089DF80E307C
S3152000056063704246CDE900894B4604F1180000F03D
S31520000570D4FC04F59D504246CDE900894B4608300F
S315200005804CF6700800F0C9FC214642F23A7205A8E2
S3152000059004F0A8F956F80840042C08DD0F4803F0AB
S315200005A0D9FE28460DF59D4D05B0BDE8F08F42F2E7
S315200005B03A7205A90BFB04A0013404F093F946F81E
S315200005C008403A789DF80F103046FFF76EFF054633
S315200005D0E7E700BF210300203D030020E45300206D
S315200005E0F0B591B00446684680E806001E46002312
S315200005F0ADF8163003C89DF858700490ADF8141065
S315200006003A4631462046FFF771FF83780546002B90
S3152000061043D09DF814300B2B3FD004A9183000F09E
S3152000062036FC94F83C2094F83D30ADF808008DF85F
S315200006300A2042F238728DF80C30AB5A8DF80D70C4
S315200006400133AB528DF80B60DDE90201FFF7B5FEF1
S315200006500023CDE908330A9304238DF820309DF832
S3152000066014300825CDE9063007468DF8225004AB14
S315200006700DF1230213F8011B02F8011B013DF9D1EC
S31520000680606B06A901F03FFD042810D1184803F03D
S3152000069061FE2F46384611B0F0BD42F2387194F80B
S315200006A03C20695A94F83D30ADF80810BFE79DF814
S315200006B014300B2BEED006AD0FCD0BAE0FC62B682C
S315200006C0D4F82C543360312D0EDC14230BAE03FBEF
S315200006D005450FCE44350FC533682B60D4F82C342E
S315200006E00133C4F82C34D5E7024803F033FED1E7B2
S315200006F019550020FF5300201FB502AC84E80600E0
S3152000070090F83C20022A09D190F83D209A4205D142
S31520000710064803F01FFE002004B010BD009394E8A5
S3152000072006000223FFF75CFFF6E700BF49540020CE
S315200007307FB5022B02AD85E806004FF0000405D1F7
S31520000740084803F007FE204604B070BD90F83C1020
S31520000750994201D10448F4E7009495E80600FFF792
S315200007603FFFF1E76F540020495400201FB590F851
S315200007703C30022B044626D100F06EFB0E23B0FB44
S31520000780F3F202FB1303013384F83D300F4803F0E4
S31520000790EBFD002194F83D0003F0EAFD0C4803F040
S315200007A0E3FD13238DF80C3000238DF8083094F8E0
S315200007B03D30009304AA12E9060094F83C30204606
S315200007C0FFF70EFF206404B010BD00BF8C5400203C
S315200007D096540020F0B5044693B01C3015461E46AC
S315200007E000F0B1FC204603F027FB189904F1240001
S315200007F003F004FC5E4A22601C326262FDB1012DC8
S315200008005C4A18BF00224CF67003002104F54840CC
S31520000810C4E90D2584F83C6084F83D102164C4F8B1
S315200008202C147830E15000F09BFA534B53F82520D6
S315200008303AB1524803F08EFD204613B0F0BD504A1F
S31520000840E1E743F82540A36B002B00F08680012BBF
S3152000085014BF00204FF08060012102F0B9F994F80E
S315200008602000484D00F07CFC012102F08DF9092280
S315200008701146E06901F0EFFF0922E069082101F045
S31520000880EAFF40F202264FF40073E06903A9CDE99E
S31520000890033601F065FF4FF48073E06905A9CDE9C1
S315200008A0053501F05DFF4023E06907A9CDE907364C
S315200008B001F056FF2023E06909A9CDE9093501F0A9
S315200008C04FFF314B0EAA03F10807164618685968E0
S315200008D0154603C50833BB422A46F7D118689B88BC
S315200008E02860AB80304601F041FB284A10685168E9
S315200008F00BAB03C3906818600BA9606B01F0CCFAB0
S3152000090070BB234803F026FDA36B6BBB214B224A09
S315200009101A60302383F31188204B202283F8142376
S315200009204FF480121A60606B0122022101F044FD0F
S315200009302046FFF71BFF94F83C30002B3FF47CAF9A
S31520000940A38FADF8043014228DF80820DDE90112BA
S3152000095000232046FFF7ECFE6EE74FF000707BE7A2
S315200009600F4803F003FDCFE70E4B0F4AD0E700BF39
S315200009708C56002000680040605E002098540020BD
S315200009800064004002020001B0560020BE5600203E
S31520000990C954002090C00120F90D002000E100E09C
S315200009A0DD54002040C10120AD0D002073B50F4D50
S315200009B02A7ABFF35B8F12F00104064613D105F1A4
S315200009C0080003F0A5FF70B10A23009322463346A0
S315200009D001210748FFF7FEFE05F1080003F0A7FFF7
S315200009E0044803F079FF024802B070BD605E002023
S315200009F0705E0020650400202DE9F043D0F82C34E9
S31520000A0087B00446002B3ED02148DFF8949003F0AF
S31520000A10ADFCD4F82C3404F144054FF0140808FB3F
S31520000A2003582E462F46B8450AD0606B394601F04A
S31520000A306AFB042802D1484603F08CFC1437F2E7FF
S31520000A40236C0193FBB101AB0293124BD4F82C24F7
S31520000A500593114B0493142303FB0252B2423446EE
S31520000A6014D0314602A8FFF777FC14360028F5D0BB
S31520000A7002A800F04FF934B10849641BA410614361
S31520000A80284600F071F907B0BDE8F0830024EFE7AF
S31520000A90F55400205903002067030020CDCCCCCC90
S31520000AA00A550020A0F12400A6E72DE9F04FADF568
S31520000AB09E5D81B000240CAE0D4607462146304689
S31520000AC0CDE9054400F04CF996E803000590ADF811
S31520000AD01810686B844901F077FC01280AD0059824
S31520000AE0BDF8183038603846BB800DF59E5D01B0E4
S31520000AF0BDE8F08F07AA686B214601F08FFB0899A5
S31520000B0003A8FFF74CFC9DF80F2095F83C309A423D
S31520000B1003D0764803F02AFCE1E79DF8112095F8EA
S31520000B203D309A4201D07248F4E7BDF80C809DF81A
S31520000B300E909DF810A00DF1270205AB4FF0080B83
S31520000B4012F8011B03F8011BBBF1010BF8D1524629
S31520000B5049462846FFF7CAFC044618B9654803F0FB
S31520000B60F9FBBCE78378ABB19DF818300B2B11D07D
S31520000B70424605A9183000F09FF958B95E4803F09F
S31520000B80E9FB5946304600F0EBF896E80300ADF84D
S31520000B901810A5E795F83C305BB39DF81830FF2B6D
S31520000BA068D0122B5DD1554803F0D4FB0123A370E6
S31520000BB0D4E90423CDE900233046D4E9022300F00A
S31520000BC0ACF904F59D50314641F29032083003F0DD
S31520000BD089FED4E90223CDE900233046D4E9042353
S31520000BE000F09BF941F29032314604F1180003F0EF
S31520000BF079FE9DF818300B2B3CD1BDF814900023BC
S31520000C0005F148044FF0140AD5F82C24934268DAEB
S31520000C100AFB03F23046A158FFF7C1FB32884A454A
S31520000C205DD1194605F1440000F09EF8012495F89F
S31520000C303C30022B08D12B6C994505D1304803F066
S31520000C4095FB2846FFF792FD14B92E4803F08EFB3C
S31520000C502D4803F089FB4046002103F089FB2B48F1
S31520000C6058E70E2B1DD1BDF81400BDF8162042EA18
S31520000C7000426261244803F077FB4046002103F0DE
S31520000C8077FB234803F072FB0B233371ADF83080DA
S31520000C90CDF800A096E806004B462846FFF7A0FCB4
S31520000CA01DE70F2B07D1BDF81400BDF8162042EA28
S31520000CB000422261DEE7102B07D1BDF81400BDF8F3
S31520000CC0162042EA0042E260D4E7112B91D1BDF80A
S31520000CD01400BDF8162042EA0042A260CAE701339A
S31520000CE092E70024A3E700BF030000122855002046
S31520000CF05755002095550020D85500200256002033
S31520000D001656002027560020475600204D56002014
S31520000D1058560020836810B5044613B103220146B5
S31520000D209847204610BDF8B54CF240430446C658B5
S31520000D304FF41D530D4603FB0606B44227460DD03D
S31520000D40AB680BB903F00DFE2146EB6828469847A1
S31520000D5004F51D540028F0D03846F8BD0027FBE7DF
S31520000D601622027101707047F0B50C1E07461BDB78
S31520000D70D0F8E823944217DA531EA342C0F8E8338A
S31520000D8001D1012011E014235C4303FB02FCA0F1F6
S31520000D90140E14346445F4D03E190FCE0EEB040520
S31520000DA00FC533682B60F4E70020F0BD104B37B534
S31520000DB05C682CB90F4803B0BDE8304003F0CABACE
S31520000DC06D4621462846FFF770FE9DF80430162B07
S31520000DD00CD095E803004CF67803E218E050204644
S31520000DE0918003B0BDE8304003F048B803B030BD71
S31520000DF0605E00205F560020104B37B51C682CB96A
S31520000E000F4803B0BDE8304003F0A4BA6D46214632
S31520000E102846FFF74AFE9DF80430162B0CD095E89D
S31520000E2003004CF67803E218E0502046918003B088
S31520000E30BDE8304003F022B803B030BD605E00202C
S31520000E405F56002008B500F061F9024803F082FAE7
S31520000E50002008BDCA560020402008B5012101F017
S31520000E609FFE012001F0ABFF012001F0C7FF012802
S31520000E70FAD1BDE8084001F0AFBF82884388134409
S31520000E800288C088134410FA83F080B2704770B588
S31520000E90064608460C46FFF7F0FF054606F6C8103C
S31520000EA000F04AF8D4E9002320F47F4042404B402A
S31520000EB0C4E90023284670BD2DE9F041ADF6C81DD2
S31520000EC00C46054601469046684640F6C81203F091
S31520000ED009FD284600F030F8D4E9002320F47F47A6
S31520000EE07A404B40C4E9002320460E46FFF7C5FF53
S31520000EF0404510D0694640F6C412284603F0F2FC5D
S31520000F00D4E9000178407140C4E9000100200DF6C3
S31520000F10C81DBDE8F0810120F9E710B5044600F0B0
S31520000F20BFF804F6C810DDE9022300F0B9F8204620
S31520000F3010BD000000000000D0F8C039B3F59C7F3A
S31520000F402DE9F04F7CD300F59C639E4602464FF078
S31520000F500008D2E9001A52F808CF01F000412CF01F
S31520000F60004CDEE900B94CEA010C4FEA5C010CF0BA
S31520000F700106474641EACA7156EA070C0EF1080EE9
S31520000F8081EA0B0189EA5A0902D043A7D7E900670B
S31520000F90714089EA0709934242E90219D9D1A0F1A1
S31520000FA0080700F59A6C4FF0000ED3E900169A68F0
S31520000FB057F8089F22F0004201F0004111434A08E9
S31520000FC042EAC67282EA09087A6801F00104754687
S31520000FD082EA560654EA050202D02FA5D5E9004535
S31520000FE088EA04026E40BC45C3E9002603F10803E3
S31520000FF0DBD1D0F8B8290368D0F8BC49D0F8D8544A
S31520001000D0F8DC1423F0004302F000421A435308C0
S3152000101043EAC4736B4081EA5401002502F00104BF
S3152000102054EA050200F6B81602D01BA5D5E90045FC
S315200010306340C0F8B839694000237160C0F8C039F0
S31520001040D0F8C0395A1CC0F8C02900EBC30250F8AA
S3152000105033305268580F40EAC200510F01F0553123
S3152000106000F0553058404A40094B510441EAD031EE
S3152000107003EA4043584021F00E41064B21F4261145
S3152000108003EA40135140594080EAD120BDE8F08F51
S315200010900000A6EDE0EEF7FFE91966A95A6F02B542
S315200010A0C0E900232DE9F041DFF848E0DFF8488069
S315200010B0014601240025D1E9002382EA937208FB28
S315200010C002FC0EFB03CCA2FB0E231619634443EB52
S315200010D00507013445F10005002D08BFB4F59C7FB6
S315200010E0E1E90267E7D14FF49C73C0F8C039BDE847
S315200010F0F08100BF2D7F954C2DF4515808B502483C
S3152000110003F028F9FEE700BFD8560020054B064A13
S31520001110C2E900339360054A136823F0080313607D
S31520001120704700BFFD10002010C0012014ED00E024
S315200011307047FEE7FEE700BF10B50446006801F0E1
S315200011407FFA204610BD082998BF044B017194BF31
S3152000115053F8213000230360704700BFE05600207B
S3152000116008289DBF024BC01890F824000020704725
S31520001170E05600200368186980B270470368186932
S31520001180C0F30720704703681869C0B27047036828
S315200011901B69194214BF012000207047036859615A
S315200011A0704703685869C0B258615A6942EA0122F9
S315200011B05A61704703685A6902F47F425A615A6934
S315200011C011435961704703681AB15A69114359612D
S315200011D070475A6922EA0101F9E700BF014803F086
S315200011E0B9B800BF0D5700202DE9F04F684F0171A7
S315200011F09E46144607F10803036005468C4600F117
S3152000120008060FCC0FC694E80F0086E80F00614A47
S31520001210C5F828E052F82C3085B005F10806002BD9
S3152000122040F0B280BCF1080F96BF07EB0C031F46B7
S315200012301C7B42F82C504FF00003CDE9023398BFB7
S3152000124007EB8C0C4FF001038DF80E306B6A98BFBC
S31520001250DCF81870DFF85091DFF850A1DFF850B1B4
S315200012608DF80DE088BFFF2406EB8308B04500F01B
S3152000127088803068029B034302930023ADF8043034
S315200012808DF8063001238DF8073000F027FA8DF807
S31520001290040001A800F068FC3368082B09D883B144
S315200012A0013B072B0DD8DFE803F01B200C220C0C8A
S315200012B00C24B3F5787F20D0B3F57C4F2FD0102B9C
S315200012C019D056F8040B082844D800284AD0431EC3
S315200012D0072B47D8DFE803F04D3946494646464BAB
S315200012E00021204601F0BEFDEBE70121F9E70221AE
S315200012F0F7E70321F5E70421F3E70521204601F06E
S31520001300B1FD0621204601F0ADFD0721204601F062
S31520001310A9FD0821204601F0A5FD0921E1E70A21C2
S31520001320204601F09FFD0B21204601F09BFD0C215C
S31520001330204601F097FD0D21204601F093FD0E2158
S31520001340204601F08FFD0F21CBE7134B1F6001F0E4
S3152000135071F98BE7B0F5787F0DD0B0F57C4F0CD0C6
S3152000136010280CD000231F60FFDE0C4BEEE70C4B41
S31520001370ECE70C4BEAE74B46E8E75346E6E75B46E5
S31520001380E4E702A801F000F9284605B0BDE8F08F91
S3152000139088570020F02601205CC0012060C0012073
S315200013A064C0012058C001209CC00120E0C001205B
S315200013B068C001202DE9F74301791A4A1A4B0360C8
S315200013C052F821308342044600F1080506D028460B
S315200013D000F0A9F9204603B0BDE8F0830023476A50
S315200013E042F82130CDE90033DFF8408005EB87074E
S315200013F02E464FF00109BE420FD056F8040B009B33
S315200014000343009300F06AF94309203300F01F00DC
S3152000141009FA00F048F82300EDE7684601F0B4F831
S31520001420D5E700BFF02601209057002000E100E01C
S31520001430104B70B51D6A25B9BDE870400E4802F004
S3152000144095BF6E6A05F1080404EB8606B4420FD0F8
S31520001450206801F0EDF848B16B7923B12B6821465D
S315200014601B6828469847206801F0E4F80434EDE725
S3152000147070BD00BFF02601202D570020104B70B5FF
S31520001480DD6925B9BDE870400E4802F06FBF6E6A6F
S3152000149005F1080404EB8606B4420FD0206801F05B
S315200014A0C7F848B16B7923B12B6821461B682846BB
S315200014B09847206801F0BEF80434EDE770BD00BF00
S315200014C0F02601202D570020104B70B59D6925B9B7
S315200014D0BDE870400E4802F049BF6E6A05F1080467
S315200014E004EB8606B4420FD0206801F0A1F848B17B
S315200014F06B7923B12B6821461B68284698472068BC
S3152000150001F098F80434EDE770BD00BFF026012005
S315200015102D570020104B70B55D6925B9BDE8704088
S315200015200E4802F023BF6E6A05F1080404EB860616
S31520001530B4420FD0206801F07BF848B16B7923B113
S315200015402B6821461B6828469847206801F072F8C8
S315200015500434EDE770BD00BFF02601202D57002092
S31520001560104B70B51D6925B9BDE870400E4802F0D4
S31520001570FDBE6E6A05F1080404EB8606B4420FD060
S31520001580206801F055F848B16B7923B12B682146C4
S315200015901B6828469847206801F04CF80434EDE78C
S315200015A070BD00BFF02601202D570020104B70B5CE
S315200015B0DD6825B9BDE870400E4802F0D7BE6E6AD8
S315200015C005F1080404EB8606B4420FD0206801F02A
S315200015D02FF848B16B7923B12B6821461B68284622
S315200015E09847206801F026F80434EDE770BD00BF67
S315200015F0F02601202D570020104B70B59D6825B987
S31520001600BDE870400E4802F0B1BE6E6A05F10804CE
S3152000161004EB8606B4420FD0206801F009F848B1E1
S315200016206B7923B12B6821461B682846984720688A
S3152000163001F000F80434EDE770BD00BFF02601206C
S315200016402D570020104B70B55D6825B9BDE8704058
S315200016500E4802F08BBE6E6A05F1080404EB86067E
S31520001660B4420FD0206800F0E3FF48B16B7923B174
S315200016702B6821461B6828469847206800F0DAFF29
S315200016800434EDE770BD00BFF02601202D57002061
S31520001690104B70B51D6825B9BDE870400E4802F0A4
S315200016A065BE6E6A05F1080404EB8606B4420FD0C7
S315200016B0206800F0BDFF48B16B7923B12B68214625
S315200016C01B6828469847206800F0B4FF0434EDE7ED
S315200016D070BD00BFF02601202D57002008280DD808
S315200016E000B30138072807D8DFE800F017040613EF
S315200016F0060606150720704700207047B0F5787F4C
S315200017000DD0B0F57C4F0CD0102814BF00200A2035
S315200017107047082070470920704706207047172019
S31520001720704728207047C36913B1013BC361FAE7AC
S31520001730704700001138C3B20348772B9CBF00EBDB
S3152000174083008068704700BF0C58002010B50446FF
S3152000175090F8300000F031FB78B994F8300000F0B2
S315200017601BFB034604F12C001BB1BDE81040FFF71C
S3152000177005BDBDE81040FFF706BD024802F0F6FDA4
S31520001780002010BDC457002038B5044690F830001C
S315200017900D4600F012FB20B1BDE83840094802F0A2
S315200017A0E5BD94F8300000F0F7FA0346294604F127
S315200017B02C001BB1BDE83840FFF7F3BCBDE838402C
S315200017C0FFF7F8BCC4570020417901B1F021FFF79B
S315200017D0DBBF2DE9F041054690F8300000F0EDFA28
S315200017E020B1174802F0C2FD00201BE004264FF06E
S315200017F0010808FA06F0C7B239462846FFF7C4FFA3
S315200018002846FFF7A3FF98B104231024640800EAB2
S31520001810040212F0FF0F07D02846FFF7D5FF47EA4C
S315200018200400C0B2BDE8F081013B13F0FF03EDD107
S315200018300136082EDDD12846FFF7C6FFD4E700BFC4
S31520001840C457002090F8603010B504464BB1FFF71E
S31520001850C0FF30B984F86000BDE81040014802F0AE
S3152000186085BD10BDDA570020A0F15000EAE738B553
S3152000187090F860300446C3B9FFF7ABFF0546A0B128
S315200018800A4802F073FD012384F86030E36D032BD0
S31520001890DEBFE218013382F8585004F13400D8BF75
S315200018A0E365BDE8384002F0E9BA38BDE8570020C4
S315200018B001234371FFF788BF00224271FFF784BFDF
S315200018C0C06D7047583070470023043910B5044660
S315200018D0C36104290DD8DFE801F0030E0C030E00C6
S315200018E04FF4787100F090F84FF47C41204600F0D8
S315200018F08BF8204610BD012100F086F802212046F3
S3152000190000F082F80421204600F07EF80821EDE759
S31520001910F0B58FB004460D4606AE2C301746FFF7BD
S3152000192012FC29463046FFF7CFFF082332462946C8
S315200019302046FFF759FC04F1340002F07DFA3946BF
S3152000194004F1500002F02CFA264B236003F110021A
S3152000195028332365002394F830006263E36584F816
S31520001960603000F02AFA054628B11F4802F0FEFC36
S3152000197020460FB0F0BD94F8300000F00DFACDE906
S315200019800455012304AA8DF81430002892E8030098
S315200019906B4683E8030014BF4FF4704C4FF0F00CF5
S315200019A0E06ACDF800C0194614BF4FF470670F27C0
S315200019B000F0D6FE40F201230695B580ADF81E3024
S315200019C096E8030002AB83E80300E06A0297194613
S315200019D000F0C6FE2046FFF76FFF2046FFF7F4FE15
S315200019E0C6E700BFFC590020F257002010B50022A0
S315200019F00446FFF78DFF204610BD10B50446FFF7BD
S31520001A0087FF204610BD00BFC369062BDFBF40F805
S31520001A1023100133C3610120C8BF0020704710B5D1
S31520001A200446FFF790FB0023E3802381204610BD68
S31520001A3010B500790C4600F0C0F918B9FF2C8CBF00
S31520001A400020012010BD7FB505460C46FFF7F0FFAC
S31520001A50064618B90026304604B070BD287900F035
S31520001A609BF908B12402A4B2E9880C42F2D00023E3
S31520001A70CDE9023301238DF80C3002AA21EA0404B1
S31520001A8092E803006B4683E80300EC802868009404
S31520001A90194600F065FEDEE7C388194214BF01200F
S31520001AA000207047F8B505460C461746FFF7C0FFDD
S31520001AB0064610B900263046F8BD287900F06CF9A4
S31520001AC008B12402A4B2EB881C42F3D0298937B18D
S31520001AD0214329812846FFF761FB3E46EBE721EAB1
S31520001AE0040129812846FFF759FBE4E70122FFF785
S31520001AF0D9BF0022FFF7D6BF7FB505460C46FFF7B4
S31520001B0097FF064618B90026304604B070BD2879DE
S31520001B1000F042F908B12402A4B2EB8814EA0302C9
S31520001B20F1D1CDE9022201228DF80C2002A903C9A8
S31520001B3023436A4682E80300EB8028680093114617
S31520001B4000F00EFE21462846FFF7D3FFDCE7C088CB
S31520001B5070470000034B40F0BF6040F40030D8606F
S31520001B60704700BF00ED00E0017870B501F01F035B
S31520001B7001269E40C3784D09CBB10F4BDA684378D6
S31520001B80D243C2F30222C2F10404E4B2A340DCB27F
S31520001B900F2343FA02F283781340084A23431B019A
S31520001BA01144DBB281F8003342F8256070BD034B47
S31520001BB0203543F82560F9E700ED00E000E100E07C
S31520001BC021F06041024B21F07F010143996070476B
S31520001BD000ED00E0044B1A6911B1104318617047FB
S31520001BE022EA0000FAE700BF00ED00E0044B1A6885
S31520001BF004280CBF42F0040222F004021A60704747
S31520001C0010E000E0836823B18368013B83600020F5
S31520001C107047012070470020704702F0DFB81FB5DB
S31520001C200469416801A802F0BBF8054B01930394AF
S31520001C30029B002BFCD101A802F0F4F804B010BDE1
S31520001C40745A002038B50446154602F0A9F8024B0E
S31520001C502360A560204638BD745A00204068B0FA3B
S31520001C6080F040097047A0F14103192B05D930387F
S31520001C7009288CBF00200120704701207047F7B546
S31520001C801746044608301E460D46FFF75CFA3946CD
S31520001C90204602F09DF80E4B23602661284600F070
S31520001CA07BF80023002818BF4FF48072A068ADF897
S31520001CB0053008BF01228DF80730694601238DF8CB
S31520001CC00430009200F04CFD204603B0F0BD00BF6A
S31520001CD0845A002038B50446007B0D4600F05CF897
S31520001CE003462A4604F108002BB14FF48071BDE863
S31520001CF03840FFF768BA0121F9E72029F8B50446EC
S31520001D000ED1FFF78CFF2046FFF789FF2046FFF70D
S31520001D1086FF2046FFF783FF2046FFF780FFF8BDAA
S31520001D200846FFF7A0FF0028F9D0144B4029194494
S31520001D304FF0000694BF4D7A11F8215C6F0905F02B
S31520001D401F05B742E5DD00212046FFF7C3FF2046E9
S31520001D50FFF765FF01212046FFF7BCFF2046FFF76E
S31520001D605EFFEB0702D42046FFF759FF00212046ED
S31520001D70FFF7B0FF6D080136E3E700BF6C5A00207D
S31520001D8038B505464C1E14F8011F19B12846FFF731
S31520001D90B4FFF8E738BD00BF042803D0C31F58425C
S31520001DA05841704701207047052804D0A0F1080348
S31520001DB058425841704701207047032803D9831F92
S31520001DC05842584170470120704700007FB50446AD
S31520001DD00E46FFF7B8F92079FFF7EFFF054628B141
S31520001DE00F4802F0C3FA204604B070BD3046FFF714
S31520001DF0D3FFCDE9025501238DF80C3002AA002825
S31520001E0092E803006B4683E8030014BF4FF47F4635
S31520001E10FF2620680096194600F0A2FCE3E700BFE3
S31520001E20B05A002038B5044600790D46FFF7C5FFA5
S31520001E3020B1BDE83840094802F098BA2079FFF76A
S31520001E40ABFF294620B12046BDE83840FFF7A9B9A7
S31520001E502046BDE83840FFF7ADB900BFC55A00207F
S31520001E6008B50C4B98424FF001010AD14FF0007093
S31520001E7000F0EAFE00214FF00070BDE8084000F0B7
S31520001E80E3BE4FF0806000F0DFFE00214FF080605F
S31520001E90F3E700BF00640040036823F002030360F9
S31520001EA0036843F0010303604FF480334268D2078E
S31520001EB001D4013BFAD1436813F0010354D08B7946
S31520001EC0012B03680CBF43F0800323F080030360DB
S31520001ED0CB79012B03680CBF43F0400323F040036A
S31520001EE003600B7A012B03680CBF43F0200323F019
S31520001EF0200303604B7A012B03680CBF43F01003C9
S31520001F0023F0100303608B7A012B03680CBF43F088
S31520001F10080323F008030360CB7A012B03680CBF68
S31520001F2043F0040323F004030360CB788A781B066E
S31520001F3043EA82730A7943EA02434A7943EA02531F
S31520001F400A88013A1343C361036823F0010303603F
S31520001F504FF480334268D20701D5013BFAD140685D
S31520001F60C04300F00100704718467047354A837A0F
S31520001F7030B5D2F8004244F00104C2F80042D2F84B
S31520001F801C520121994025EA0105C2F81C52057B05
S31520001F90CC43002D34D1D2F80C52DB002540C2F8B8
S31520001FA00C5203F18043C588428803F5C84342EAB0
S31520001FB00542C3F840228588028842EA0542C3F8D2
S31520001FC04422C27A1F4B82BBD3F804222240C3F894
S31520001FD0042202896ABBD3F814221440C3F814429F
S31520001FE0437B012B174B02BFD3F81C221143C3F8A6
S31520001FF01C12D3F8002222F00102C3F8002230BDC1
S31520002000012DDED1D2F80C52DB000D43C2F80C5262
S3152000201003F180430588428803F5C84342EA054216
S31520002020C3F840228588C288C7E7D3F804220A432A
S31520002030CDE7012A01BF034AD2F814320B43C2F876
S315200020401432CDE7006400400123038040F20322CE
S31520002050002343808280C3800381438170470E4BD7
S31520002060D3F8001241F00101C3F80012D3F8002280
S3152000207022F47C5222F00E02C3F80022D3F800226A
S3152000208042EA0022C3F80022D3F8002222F00102FD
S31520002090C3F80022704700BF00640040036819B1EE
S315200020A043F480330360704723F48033FAE70368F0
S315200020B0A9B143F080030360D0F8843143F48073E0
S315200020C0C0F88431D0F8943143F48073C0F8943149
S315200020D0D0F8A43143F48073C0F8A431704723F0BC
S315200020E080030360D0F8843123F48073C0F88431F0
S315200020F0D0F8943123F48073C0F89431D0F8A43109
S3152000210023F48073E8E78368F0B50446580139D490
S31520002110A3681A0138D4A368DB003FD5022004EB5C
S315200021200013D3F8802102F00102C3F880210D7A32
S315200021304A7A5DBB0E68D3F8805142EA46522A435A
S31520002140C3F880218A7A02F00F028A72D3F884516A
S3152000215025F00F05C3F88451D3F884512A43C3F8D8
S31520002160842104EB0014D1F80B20C4F88821D1F87F
S315200021700F20C4F88C21D3F8802142F00102C3F845
S315200021808021F0BD0020CAE70120C8E74F68D3F8B8
S31520002190806142EAC7022A433243D1E70420F0E7AE
S315200021A00129034608460ED0022913D0E1B99968C1
S315200021B021F07B4121F47F0121F47F4121F0FC01B4
S315200021C091B10A480CE09A68094B02EA030193434D
S315200021D0F6D1704799680748054B01409942EFD9D7
S315200021E00B1A5842584170470220704703000004DA
S315200021F00003000800000310012907D0022909D096
S3152000220019B9836843F0800383607047836843F479
S315200022100043F9E7836843F40003F5E700EB011375
S3152000222010B5D3F8B04104F004041472BCBBD3F843
S31520002230B041640D1460D3F8B04104F00204547226
S31520002240D3F8B44104F00F049472D3F8B4311B0AC6
S31520002250D37400EB0113D3F8B841D472D3F8B84144
S31520002260240A1473D3F8B841240C5473D3F8B84114
S31520002270240E9473D3F8BC41D473D3F8BC41240AFA
S315200022801474D3F8BC41240C5474D3F8BC311B0EFF
S31520002290937449B9C36843F02003C36010BDD3F8D3
S315200022A0B041E4085460C6E7036943F020030361A4
S315200022B0F4E721B9C36843F02003C360704703697C
S315200022C043F020030361704719B9C06800F003008A
S315200022D07047012901D10069F8E700207047B1B99C
S315200022E0036823F0030343F0010303604FF48033B4
S315200022F0426802F00302012A01D0013BF8D140686E
S3152000230000F00300012814BF002001207047012996
S3152000231011D1036823F0030303604FF4803342682E
S31520002320920701D0013BFAD1436813F0030F0CBF8B
S31520002330012000207047022913D1036823F00303EC
S3152000234043F0020303604FF48033426802F0030235
S31520002350022A01D0013BF8D1406800F00300022890
S31520002360D1E700207047036823F0030343F00203FC
S315200023700360406800F00300831E584258417047AE
S31520002380036823F0020303604FF480334268920708
S3152000239001D5013BFAD1406880F00200C0F340002D
S315200023A07047806900F0700070478069000E7047A2
S315200023B08069C0F307407047436912B119434161F0
S315200023C0704723EA0101FAE711F4700F034607D09C
S315200023D080690840C0F31300003818BF01207047F9
S315200023E0CA0101D54068F4E7080101D59868F0E7ED
S315200023F08A014CBFD8681869EBE70A4B994202D18B
S315200024000023836170478A01C1F3130301D5C3609A
S3152000241070474A0101D5036170470A014CBF8360AA
S31520002420436070477000F03002464069084015D07E
S31520002430B1F5807F4BD012D8082908D80139072951
S315200024400BD8DFE801F0252E0A340A0A0A3820299B
S3152000245037D0402937D0102931D000207047B1F528
S31520002460004F43D00CD8B1F5806F34D0B1F5006F52
S3152000247035D0B1F5007FF0D19069C0F340007047A8
S31520002480B1F5803F21D0B1F5003FE6D1506813E089
S31520002490906800F0013020F08070003818BF0120CD
S315200024A07047D06810F0030018BF01207047D0682D
S315200024B0C0F3C0007047D068C0F3001070471069A1
S315200024C0F0E71069F4E71069F6E75068F0E79069DD
S315200024D000F0010070479069C0F38000704793694F
S315200024E013F0700F14BF0120002070475068F3E7E7
S315200024F0B1F5007F36D00FD8202927D006D8042959
S315200025001FD0082920D0012918D07047402920D073
S31520002510B1F5807F26D07047B1F5004F20D006D880
S31520002520B1F5806F1ED0B1F5006F19D07047B1F5A7
S31520002530803F10D0B1F5003F10D070470A4B836022
S3152000254070470823C36070471023FBE70823036105
S3152000255070471023FBE70823436070471023FBE7EF
S31520002560002383610423F7E701010100044B0022C5
S315200025701A605A609A60DA60024A5A61704700BF50
S31520002580003C0140FFFF7F000279837930B5056862
S3152000259002F1804202F59E32E94323B3144B1C68B4
S315200025A00C401C605C682140596011682943116009
S315200025B09968026821EA02019960D96821EA020134
S315200025C0D9604179102906D1996811439960D96853
S315200025D00A43DA6030BD01F1804303F59E33196862
S315200025E00A431A60F6E713680B401360F2E700BF50
S315200025F0003C014000234FF44062036082808371D7
S315200026007047024A1369034313617047003C014037
S31520002610034B5B69034214BF01200020704700BFB3
S31520002620003C0140014B5861704700BF003C01400F
S31520002630FFF7EEBF014B5861704700BF003C0140D9
S3152000264008B53C4B984209D10121084600F0D8FA3A
S3152000265000210120BDE8084000F0D2BA364B98424E
S3152000266006D10121022000F0CBFA00210220F1E759
S31520002670324B984206D10121042000F0C1FA0021F4
S315200026800420E7E72E4B984206D10121082000F0CE
S31520002690B7FA00210820DDE72A4B984206D101210E
S315200026A0102000F0ADFA00211020D3E7264B9842E7
S315200026B006D10121202000F0A3FA00212020C9E71D
S315200026C0224B984206D10121402000F099FA0021A0
S315200026D04020BFE71E4B984206D10121802000F002
S315200026E08FFA00218020B5E71A4B984208D10121A4
S315200026F04FF4807000F084FA00214FF48070A9E72F
S31520002700154B984208D101214FF4007000F078FA59
S3152000271000214FF400709DE7104B984208D101210B
S315200027204FF4806000F06CFA00214FF4806091E74E
S3152000273008BD00BF0000024000040240000802401D
S31520002740000C024000100240001402400018024013
S31520002750001C0240002002400024024000280240C3
S315200027602DE9F0410022012603250B6806FA02FC1A
S315200027703CEA030331D10368540005FA04FE23EA38
S315200027800E0303600B79D0F800806FEA0E0703FA78
S3152000279004FE013B4EEA080E012BC0F800E011D8DA
S315200027A083681F4087604B798768A3403B438360DB
S315200027B0436823EA0C0343608B79476893409BB2B6
S315200027C03B434360C36805FA04F723EA0703C36063
S315200027D0CB79C768A3403B43C3600132102AC4D1DA
S315200027E0BDE8F0814FF6FF720023C0E90023704751
S315200027F082B04FF480330193019B0B430193019BDD
S31520002800C361C161019BC361C3690193C36901931C
S3152000281002B070470369194214BF01200020704797
S31520002820006980B270474369194214BF0120002015
S315200028307047406980B27047018370474183704773
S315200028400AB10183704741837047416170474369EC
S3152000285059404161704701F00703C90800EB810028
S3152000286010B5016A9B000F249C4021EA04010162F5
S31520002870016A9A400A43026210BD00BF0E4B1A68D5
S31520002880002142F001021A6099601A6822F0A852CB
S3152000289022F410221A60094A5A60094AC3F8842091
S315200028A002F18062C3F888201A6822F480221A6016
S315200028B0D960C3F88C1070470038024010300024CD
S315200028C000300020024B00221A701870704700BF9B
S315200028D002380240034A136823F0F80343EAC00390
S315200028E01360704700380240014B1860704700BFE4
S315200028F000004742064B002201281A701A7002D0A7
S31520002900042802D070471870704705221A70704745
S3152000291070380240014B1860704700BF800E474256
S3152000292010B5029C40EA046008435B08013B40EA7C
S31520002930821040EA0340014B586010BD0038024027
S31520002940014B1860704700BF60004742034B0907E0
S3152000295041EA8011C3F88410704700BF0038024056
S31520002960014B1860704700BF680047421207044BAE
S3152000297042EA016242EA8012C3F88820704700BF0B
S3152000298000380240014B1860704700BF7000474274
S31520002990014B1860704700BF4C004742034A9368BA
S315200029A023F0EC630B4303439360704700380240E7
S315200029B0034A936823F078430B430343936070479D
S315200029C000380240034A936823F0030303439360CD
S315200029D0704700BF00380240024B986800F00C0098
S315200029E0704700BF00380240034A936823F0F00383
S315200029F003439360704700BF00380240034A936840
S31520002A0023F4E05303439360704700BF003802402D
S31520002A10034A936823F4604343EAC00393607047F4
S31520002A20003802401D4A936803F00C03042B10B5AE
S31520002A301AD0082B1AD01A4B184A036093681949E2
S31520002A40C3F30313CC5C0368E34043609468C4F388
S31520002A5082240C5D23FA04F484609268C2F3423225
S31520002A608A5CD340C36010BD0F4BE5E754685168BC
S31520002A7052686302C2F388124CBF0B4B084B01F01D
S31520002A803F01B3FBF1F35343044A5268C2F30142B8
S31520002A9001325200B3FBF2F3CEE700BF003802400A
S31520002AA00024F400EC50002040787D0100F44073AF
S31520002AB0B3F5407F084A08D1916820F0704321F48D
S31520002AC0F81123F440730B439360136FC0F30B008C
S31520002AD018431067704700BF00380240014B18604A
S31520002AE0704700BF3C0E4742014B1860704700BF3D
S31520002AF0400E4742014B1860704700BF5C014742B9
S31520002B00044AD2F88C3023F440130343C2F88C30A5
S31520002B10704700BF00380240044AD2F88C3023F4B4
S31520002B2040030343C2F88C30704700BF0038024090
S31520002B30044AD2F88C30013823F01F031843C2F818
S31520002B408C00704700380240054AD2F88C30013894
S31520002B5023F4F85343EA0023C2F88C30704700BFB1
S31520002B6000380240044AD2F88C3023F44033034321
S31520002B70C2F88C30704700BF00380240014B186005
S31520002B80704700BFE0114742044B1A6B11B1104346
S31520002B901863704722EA0000FAE700BF00380240B7
S31520002BA0044B5A6B11B110435863704722EA000058
S31520002BB0FAE700BF00380240044B9A6B11B110436C
S31520002BC09863704722EA0000FAE700BF0038024007
S31520002BD0044B1A6C11B110431864704722EA0000A6
S31520002BE0FAE700BF00380240044B5A6C11B110437B
S31520002BF05864704722EA0000FAE700BF0038024016
S31520002C00044B1A6911B110431861704722EA00007B
S31520002C10FAE700BF00380240044B5A6911B110434D
S31520002C205861704722EA0000FAE700BF00380240E8
S31520002C30044B9A6911B110439861704722EA00004B
S31520002C40FAE700BF00380240044B1A6A11B110435C
S31520002C501862704722EA0000FAE700BF00380240F7
S31520002C60044B5A6A11B110435862704722EA000099
S31520002C70FAE700BF00380240044B1A6D11B1104329
S31520002C801865704722EA0000FAE700BF00380240C4
S31520002C90044B5A6D11B110435865704722EA000063
S31520002CA0FAE700BF00380240044B9A6D11B1104379
S31520002CB09865704722EA0000FAE700BF0038024014
S31520002CC0044B1A6E11B110431866704722EA0000B1
S31520002CD0FAE700BF00380240044B5A6E11B1104388
S31520002CE05866704722EA0000FAE700BF0038024023
S31520002CF0044B1A6F01280CBF42F0080222F008028A
S31520002D001A67704700380240044B1A7811B11043F5
S31520002D101870704722EA0000FAE700BF0D3802401B
S31520002D204209012A074B07D11B6800F01F0023FA2E
S31520002D3000F000F001007047022A0CBF1B6F5B6F8A
S31520002D40F3E700BF0038024007B500230193312086
S31520002D50FFF7E6FF019B01330193019BB3F5A04FDB
S31520002D6001D00028F3D03120FFF7DAFF003818BF52
S31520002D70012003B05DF804FB024A536F43F08073D1
S31520002D805367704700380240034BDB68184214BF74
S31520002D9001200020704700BF00380240014B187008
S31520002DA0704700BF0E38024008B501214020FFF7CA
S31520002DB033FFBDE8084000214020FFF72DBF054B1B
S31520002DC01A6818B142F004021A60704722F0040211
S31520002DD0FAE700BF00080650014B9868704700BF0D
S31520002DE000080650044B1A6818B142F008021A600F
S31520002DF0704722F00802FAE700080650034B5B688A
S31520002E00184214BF01200020704700BF000806505A
S31520002E10024B6FEA00105860704700BF000806504A
S31520002E20FFF7ECBF024BC043C0B25860704700BFEB
S31520002E300008065008B501214FF48040FFF710FF27
S31520002E40BDE8084000214FF48040FFF709BF014B41
S31520002E501860704700380140014B1860704700BF6A
S31520002E602000274201F0030301F0FC0101F180411B
S31520002E7001F59C3110B58A689B000F249C4022EAFC
S31520002E8004028A608A6898401043886010BD014B0E
S31520002E9018607047DC002742014B1860704700BF5E
S31520002EA000042742024B186AC0F30020704700BF77
S31520002EB00038014030B5058C25F001052D042D0C78
S31520002EC00584048B058C24F0F304ADB22404240C71
S31520002ED042EA031225F00A0514432943A4B241F01D
S31520002EE001010483018430BD70B5068C26F01006DE
S31520002EF03604360C0684058B048C25F44075A4B262
S31520002F002D05120224F0A0042D0D42EA033244EAD4
S31520002F1001141543A4B2ADB244F010040583048411
S31520002F2070BD08B54D4B984209D101210846FFF7DF
S31520002F3097FE00210120BDE80840FFF791BEB0F1C1
S31520002F40804F09D101210846FFF77EFE002101208E
S31520002F50BDE80840FFF778BE414B984206D10121D3
S31520002F600220FFF771FE00210220F1E73D4B984237
S31520002F7006D101210420FFF767FE00210420E7E7A0
S31520002F80394B984206D101210820FFF75DFE00212A
S31520002F900820DDE7354B984206D101211020FFF7A6
S31520002FA053FE00211020D3E7314B984206D1012150
S31520002FB02020FFF749FE00212020C9E72D4B98420B
S31520002FC006D101210220FFF74BFE00210220B2E7A5
S31520002FD0294B984208D101214FF48030FFF740FE5B
S31520002FE000214FF48030A6E7244B984208D10121D6
S31520002FF04FF40030FFF734FE00214FF400309AE7FB
S315200030001F4B984208D101214FF48020FFF728FE5C
S3152000301000214FF480208EE71A4B984206D10121D9
S315200030204020FFF711FE0021402091E7164B9842E1
S3152000303006D101218020FFF707FE0021802087E7A7
S31520003040124B984208D101214FF48070FFF7FCFD06
S3152000305000214FF480707BE708BD00BF00000140CF
S315200030600004004000080040000C00400010004012
S31520003070001400400004014000400140004401408B
S315200030800048014000180040001C0040002000407D
S315200030901C4A038890429BB212D002F5806290426D
S315200030A00ED0B0F1804F0BD0A2F58032904207D0DF
S315200030B002F58062904203D002F58062904203D1ED
S315200030C04A8823F0700313430F4A904208D002F532
S315200030D0806290421FBF23F440730A899BB2134338
S315200030E003804B68C3620B880385064B984203D046
S315200030F003F58063984201D18B7A0386012383826C
S31520003100704700BF000001400010004000234FF030
S31520003110FF32C0E9003203818372704701858282C3
S315200031207047038823F070031B041B0C0B4303809A
S31520003130704741627047C1627047406A7047008D90
S3152000314080B27047038821B19BB243F0020303800B
S31520003150704723F002031B041B0CF8E7038821B1F8
S315200031609BB243F004030380704723F004031B043F
S315200031701B0CF8E7038821B19BB243F08003038040
S31520003180704723F080031B041B0CF8E7038823F009
S3152000319008031B041B0C038003889BB20B4303808C
S315200031A07047038823F440731B041B0C0380038899
S315200031B09BB20B4303807047038821B19BB243F037
S315200031C001030380704723F001031B041B0CF8E75F
S315200031D0038C23F001031B041B0C038470B5038CA2
S315200031E08288048B0D884E8824F073042404240CD2
S315200031F02C4323F002038D891B0435431B0C2B43E0
S315200032000E4DA84292B29BB203D005F58065A84226
S315200032100ED1CD894E8A23F008032B438D8823F0C7
S3152000322004032B430D8A22F4407235432A4392B27B
S3152000323082808A6804834263038470BD0000014053
S31520003240038C23F010031B041B0C038470B5038C22
S315200032508488028B0D884E8822F4E6421204120CD2
S3152000326042EA052223F020038D891B0435431B0CDB
S3152000327043EA0513114DA842A4B292B29BB203D0E1
S3152000328005F58065A84213D1CD894E8A23F08003A7
S3152000329043EA05134FF6BF751D408B8845EA031395
S315200032A00D8A24F44064354344EA85049BB2A4B2D3
S315200032B0848002838A688263038470BD0000014093
S315200032C0038C23F480731B041B0C038470B5038CBE
S315200032D08288848B0D884E8824F073042404240C61
S315200032E02C4323F400738D891B0435431B0C43EABE
S315200032F00523114DA84292B29BB203D005F58065F5
S31520003300A84213D1CD894E8A23F4006343EA0523CC
S315200033104FF6FF351D408B8845EA03230D8A22F49C
S315200033204052354342EA05129BB292B282808A68A5
S315200033308483C263038470BD00000140038C23F4A0
S3152000334080531B041B0C038470B5038C8488828BEA
S315200033500D884E8822F4E6421204120C42EA052217
S3152000336023F400538D891B0435431B0C43EA053394
S315200033700A4DA842A4B292B29BB203D005F580654D
S31520003380A84205D10D8A24F4804444EA8514A4B2C7
S31520003390848082838A680264038470BD00000140B1
S315200033A00023C0E90233036083800361704730B590
S315200033B0048C0125A4B28D4024EA050400F11803EB
S315200033C0048421F0080050B94908C85820F070003C
S315200033D00004000CC850C8580243CA5030BD0439F6
S315200033E0C1F34E011202C85820F4E0400004000C3C
S315200033F0C85092B2C858EFE741637047816370475F
S31520003400C163704701647047038B23F070031B046C
S315200034101B0C0B4303837047038B23F4E0431B04ED
S315200034201B0C43EA01239BB203837047838B23F053
S3152000343070031B041B0C0B4383837047838B23F47D
S31520003440E0431B041B0C43EA01239BB28383704792
S31520003450038B23F008031B041B0C0B4303837047C9
S31520003460038B23F400631B041B0C43EA01239BB24A
S3152000347003837047838B23F008031B041B0C0B4329
S3152000348083837047838B23F400631B041B0C43EA5E
S3152000349001239BB283837047038B23F004031B0411
S315200034A01B0C0B4303837047038B23F480631B049D
S315200034B01B0C43EA01239BB203837047838B23F0C3
S315200034C004031B041B0C0B4383837047838B23F459
S315200034D080631B041B0C43EA01239BB28383704742
S315200034E0038B23F080031B041B0C0B4303837047C1
S315200034F0038BC3F30E0343EA01239BB20383704776
S31520003500838B23F080031B041B0C0B4383837047A0
S31520003510838BC3F30E0343EA01239BB28383704755
S31520003520038C23F002031B041B0C0B4303847047FC
S31520003530038C23F008031B041B0C0B4303847047E6
S31520003540038C23F020031B041B0C43EA01139BB2BC
S3152000355003847047038C23F080031B041B0C43EA6F
S3152000356001139BB203847047038C23F400731B045E
S315200035701B0C43EA01239BB203847047038C23F47C
S3152000358000631B041B0C43EA01239BB20384704790
S31520003590038C23F400531B041B0C43EA01339BB218
S315200035A003847047038C10B501249BB28C4023EA18
S315200035B004030384038C8A401A4392B2028410BD0A
S315200035C0038C10B504249BB28C4023EA04030384A5
S315200035D0038C8A401A4392B2028410BD0023012232
S315200035E0038043808280C38003817047406B70478D
S315200035F0806B7047C06B7047006C7047038B23F05D
S315200036000C031B041B0C0383038B9BB20B4303830A
S315200036107047028B22F440621204120C0283038B41
S315200036209BB243EA01239BB203837047F8B50C464D
S315200036304988A288B4F800C0238900290CBF022635
S315200036400026012A0CBF02270127BCF1000F0ED14C
S31520003650FFF730FCE188FFF7D1FF314623893A4650
S31520003660FFF742FCE188BDE8F840FFF7D2BFFFF73D
S315200036703BFCE188FFF7CDFF314623893A46FFF729
S3152000368019FCE188BDE8F840FFF7B8BF838B23F02B
S315200036900C031B041B0C8383838B9BB20B438383FA
S315200036A07047828B22F440621204120C8283838B31
S315200036B09BB243EA01239BB283837047F8B50D463C
S315200036C00E88AA8849882B8936B9FFF7F3FBE98843
S315200036D0BDE8F840FFF792BF042E06D1FFF704FCA1
S315200036E0E988BDE8F840FFF794BF082EEF88058CDF
S315200036F01CD125F480752D042D0C0584868B058C14
S31520003700B6B2ADB226F0F30625F4206545EA0125CA
S31520003710164346EA0316ADB2B6B245F480758683E3
S3152000372039460584BDE8F840FFF7B0BF25F480553B
S315200037302D042D0C0584B0F81CC0058C25F40055ED
S315200037402CF4407C6D041E034FEA0C5C6D0C45EA9C
S3152000375001354FEA1C5C46EA02264CEA0606ADB263
S31520003760B6B245F48055868339460584BDE8F840CF
S31520003770FFF797BF4A880B8813438A881343CA8862
S3152000378013430A8913434A8913438A8913439BB2F5
S31520003790A0F8443070470023038043808380C38091
S315200037A00381438183817047B0F8443039B16FEA91
S315200037B043436FEA53439BB2A0F844307047C3F3A8
S315200037C00E03F9E7838821B19BB243F0040383807B
S315200037D0704723F004031B041B0CF8E7838821B1F0
S315200037E09BB243F001038380704723F001031B043F
S315200037F01B0CF8E783899BB212B11943818170476C
S3152000380023EA0101FAE781827047038A194214BF2D
S31520003810012000207047C94389B201827047038A7C
S31520003820828911EA030092B203D00A4214BF012012
S3152000383000207047C94389B2018270471143A0F81E
S3152000384048107047FFF7D6BF838821B19BB243F05B
S3152000385008038380704723F008031B041B0CF8E73A
S31520003860038923F007031B041B0C0381704703897C
S3152000387023F070031B041B0C0B43038103899BB2AB
S3152000388043F007030381704738B50D46602D114676
S3152000389004464FF001020ED1FFF726FB238923F0C1
S315200038A070031B041B0C2B43238123899BB243F0FB
S315200038B00703238138BDFFF7FDFAEFE7038923F0DD
S315200038C070031B041B0C0B4303817047838823F072
S315200038D070031B041B0C838083889BB20B4383805D
S315200038E07047038923F007031B041B0C03810389FC
S315200038F09BB20B4303817047038923F080031B048B
S315200039001B0C038103899BB20B430381704710B5BF
S3152000391004890A43E4B242EA03221443A4B204818E
S3152000392010BD10B5FFF7F3FF038923F077031B04BF
S315200039301B0C43F07703038110BD10B5FFF7E7FF9B
S3152000394003899BB243F48043038110BD70B5068979
S31520003950048B058C24F4407424F0030425F02205FE
S3152000396026F0070624042D043604240C2D0C42EAE6
S315200039700312360C44F4807415430E4344F00104BC
S31520003980ADB206810483058470BD838821B19BB2C4
S3152000399043F080038380704723F080031B041B0CB5
S315200039A0F8E7A0F85010704708B5314B984209D176
S315200039B001211020FFF754F900211020BDE808400E
S315200039C0FFF74EB92B4B98420BD101214FF4003013
S315200039D0FFF73AF900214FF40030BDE80840FFF721
S315200039E033B9254B984208D101214FF48020FFF7A7
S315200039F02BF900214FF48020EFE7204B984208D185
S31520003A0001214FF40020FFF71FF900214FF4002079
S31520003A10E3E71B4B984208D101214FF48010FFF7B2
S31520003A2013F900214FF48010D7E7164B984206D1A0
S31520003A3001212020FFF714F900212020BEE7124B98
S31520003A40984208D101214FF08040FFF7FDF8002170
S31520003A504FF08040C1E70D4B984208D101214FF02D
S31520003A600040FFF7F1F800214FF00040B5E708BD10
S31520003A70001001400044004000480040004C004037
S31520003A80005000400014014000780040007C0040B7
S31520003A90028A30B50D4692B2EB88898922F44052CB
S31520003AA01A4302828389044623F4B0522889AB88BC
S31520003AB00343688922F00C0203431204120C9BB2C2
S31520003AC01343A381A38A9BB223F440730B4385B08F
S31520003AD0A3826846FEF7A6FF194B9C4203D003F546
S31520003AE080639C4222D10399A2891923100403FBE7
S31520003AF001F3A28929684FF064054CBF490089006B
S31520003B001204B3FBF1F1B1FBF5F34FEA031005FB09
S31520003B1013130DD5DA003232B2FBF5F202F00702AA
S31520003B2042EA00039BB2238105B030BD0299DBE750
S31520003B301B013233B3FBF5F303F00F030343F1E725
S31520003B40001001404FF416520023C0E900234FF421
S31520003B504022826083817047038A9BB223F470627D
S31520003B6010B50B884C8823438C88C98823430B4384
S31520003B709BB21343038210BD0023038043808380BE
S31520003B80C3807047838921B19BB243F4005383815C
S31520003B90704723F400531B041B0CF8E7028B02F436
S31520003BA07F420283038B9BB20B4303837047838937
S31520003BB031B16FEA43436FEA53439BB28381704727
S31520003BC0C3F30E03FAE7838A21B19BB243F4006361
S31520003BD08382704723F400631B041B0CF8E7C1F3B0
S31520003BE00801818070478088C0F308007047038AE7
S31520003BF023F00F031B041B0C0382038A9BB20B4387
S31520003C0003827047838921B19BB243F002038381EB
S31520003C10704723F002031B041B0CF8E7838923F467
S31520003C2000631B041B0C838183899BB20B43838116
S31520003C307047038A23F020031B041B0C0382038A8C
S31520003C409BB20B4303827047038A21B19BB243F494
S31520003C5080430382704723F480431B041B0CF8E740
S31520003C6083899BB243F0010383817047838A21B104
S31520003C709BB243F008038382704723F008031B049A
S31520003C801B0CF8E7028BD2B20283038B9BB243EA6A
S31520003C90012303837047838A21B19BB243F020031B
S31520003CA08382704723F020031B041B0CF8E7838ACA
S31520003CB021B19BB243F010038382704723F0100397
S31520003CC01B041B0CF8E7838A23F004031B041B0C3C
S31520003CD08382838A9BB20B4383827047838A21B176
S31520003CE09BB243F002038382704723F002031B0436
S31520003CF01B0CF8E7838A9BB212B119438182704765
S31520003D0023EA0101FAE7012310B5C1F342149C42CC
S31520003D1001F01F0103FA01F105D10C3003683AB115
S31520003D201943016010BD022C0CBF10301430F5E78A
S31520003D3023EA0101F5E70388194214BF0120002078
S31520003D407047C94389B20180704710B5C1F3421448
S31520003D500246012301F01F00012C03FA00F30ED1C5
S31520003D609089128880B2184092B238B10123090A8C
S31520003D7003FA01F10A4214BF1846002010BD022C96
S31520003D800CBF108A908AECE7090A01238B40DB439B
S31520003D909BB20380704700BF704701207047704771
S31520003DA0064B0360416039B18B69042BDFBF01EB01
S31520003DB08302013350608B61704700BFE45A0020B4
S31520003DC0024A026000224260704700BFE45A002087
S31520003DD010B50446FFF7E4FF204610BD436870B5D2
S31520003DE0024673B14068041D816925460023994225
S31520003DF016DD55F8046BB24210D101398B4204D13D
S31520003E00836101200023536070BD81619942F8DDF2
S31520003E10013354F8235040F82350F7E70133E6E7FF
S31520003E200020EFE710B5034B03600446FFF7D6FFEB
S31520003E30204610BDE45A0020024A02600022826118
S31520003E40704700BFF45A002038B54B6804460D462B
S31520003E5013B10846FFF7C2FFA369042B0CDC04EB61
S31520003E60830201335560A36123686C6020461B687A
S31520003E7029469847012038BD0020FCE770B5044646
S31520003E80054654F8043B5B689847AE6904EB860602
S31520003E90A64214D0206803681B6898472B6848B14F
S31520003EA09B68216828469847206803685B6898477E
S31520003EB00434EDE7DB68216828469847F8E770BDAB
S31520003EC083685A1C8260C26893FBF2F002FB1030B2
S31520003ED0B0FA80F040097047406A704720B1012847
S31520003EE014BF0020E52070474AF20F40704718B1F2
S31520003EF0431E584258417047132070472DE9F04F12
S31520003F000C46DFF8D89089B005469046FFF794FF17
S31520003F10032C98BFA70259F824602C4B2B6094BF22
S31520003F2007F180470027EC612F62002E44D1032C35
S31520003F3046D8274951F824A001EB84030C441B6979
S31520003F4094F8240094F920B001930121FEF740FE55
S31520003F50019BEA69CAF80030404649F82250059686
S31520003F600796FFF7BBFFADF814004046FFF7BFFFEB
S31520003F7005A90690286AFFF78BF801213846FFF736
S31520003F801BF9012211463846FFF734FC0122ADF811
S31520003F9010608DF812608DF81320049A0D48039254
S31520003FA05FFA8BF38DF80C3000F0E0F903A8FDF7EB
S31520003FB0DBFD094800F0DAF9284609B0BDE8F08FA4
S31520003FC001213046FEF704FE3660FFDE805B0020CE
S31520003FD0905B0020045B0020505B0020142701200A
S31520003FE038B504461546FFF7F3FE034B236000233E
S31520003FF0A3602046E56038BDC05B002038B5044686
S315200040000D46FFF7DDFE034B23600023A360204609
S31520004010E56038BDC05B0020F8B50546144B45F871
S31520004020043B144EC369144F56F82330834204468A
S3152000403005D02760284600F0A5F82046F8BD006A7E
S31520004040FEF76FFFE269032A9BBF0C4B9B180023E8
S3152000405093F920300120590903F01F0300FA03F3D6
S315200040602031074840F82130002346F82230E0E787
S31520004070805B002014270120F45A0020905B00204A
S3152000408000E100E00D4B10B5DC6824B90C4800F0C7
S315200040906DF9236AFFDE636A206A013363620121B8
S315200040A0FFF7BDFB40B12046FFF7E8FE206A01215D
S315200040B0BDE81040FFF7BEBB10BD00BF142701208E
S315200040C05F5600200D4B10B59C6824B90C4800F0B3
S315200040D04DF9236AFFDE636A206A01336362012198
S315200040E0FFF79DFB40B12046FFF7C8FE206A01215D
S315200040F0BDE81040FFF79EBB10BD00BF142701206E
S315200041005F5600200D4B10B55C6824B90C4800F0B2
S315200041102DF9236AFFDE636A206A01336362012177
S31520004120FFF77DFB40B12046FFF7A8FE206A01215C
S31520004130BDE81040FFF77EBB10BD00BF142701204D
S315200041405F5600200D4B10B51C6824B90C4800F0B2
S315200041500DF9236AFFDE636A206A01336362012157
S31520004160FFF75DFB40B12046FFF788FE206A01215C
S31520004170BDE81040FFF75EBB10BD00BF142701202D
S315200041805F560020436913B1013B4361FAE770474C
S315200041907047704710B50C4605488021FFF7CBFDC8
S315200041A00028F9D021460248BDE81040FFF717BD88
S315200041B00010014070B5044616464D1E15F8011F25
S315200041C019B12046FFF7E6FFF8E72EB120460A216F
S315200041D0BDE87040FFF7DEBF70BD70B51A4E1B4DAF
S315200041E086B00446FFF728FE06F108032360002365
S315200041F0C4F8803002A8FFF7A5FC154B029302A94C
S315200042000C232846ADF81230FFF742FC012110207E
S31520004210FEF7EAFC012240F225512846FFF773FDFE
S31520004220B069019001A8FDF79FFC28460121FFF700
S31520004230A9FC084B084A1A60204608490122FFF7C4
S31520004240B9FF204606B070BD005C0020001001407A
S31520004250F0E50100D4C001207B440020C85B00208B
S3152000426010B50A4C2378BFF35B8FDB070CD42046AE
S3152000427000F04EFB40B1201DFFF7AFFF204600F0B7
S3152000428056FB034800F028FB024810BD38270120C2
S315200042904D4400203C27012010B50446FFF7E0FFDF
S315200042A02146BDE81040FFF775BF38B504460D46D8
S315200042B054EA050312D00A22002300F05BF9FFF727
S315200042C0F4FF204629460A22002300F053F902F182
S315200042D03000BDE83840C0B2FFF7DEBF38BD38B584
S315200042E004460D4654EA050314D0000940EA01703D
S315200042F00909FFF7F4FF0023002B04F00F02D0B2C8
S3152000430008BF0A2A34BF30303730BDE83840C0B243
S31520004310FFF7C2BF38BD38B504460D4654EA05033B
S315200043200DD0400840EAC1704908FFF7F4FF04F0B9
S3152000433001003030BDE83840C0B2FFF7ADBF38BD10
S3152000434010B50446FFF78CFF21460022BDE8104039
S31520004350FFF730BF10B50446FFF782FF2146012242
S31520004360BDE81040FFF726BFFFF77ABFFFF778BFFB
S31520004370FFF776BF431E013913F8012F11F8010FFD
S3152000438032B118B18242F7D0002070470120704721
S31520004390B0FA80F040097047431E013913F8012F07
S315200043A011F8010F1AB9B0FA80F04009704710B120
S315200043B08242F3D00020704738B504460D4654EAB1
S315200043C0050304D1BDE838403020FFF765BF00283B
S315200043D071F1000305DA2D20FFF75EFF644265EBDD
S315200043E0450520462946BDE838405EE738B50446EF
S315200043F00D4654EA050304D1BDE838400548FFF7C9
S315200044009FBF0548FFF79CFF20462946BDE8384058
S3152000441065E700BFD95B0020DD5B002038B5044688
S315200044200D4654EA050304D1BDE838400548FFF798
S3152000443087BF0548FFF784FF20462946BDE8384058
S3152000444069E700BFE05B0020E45B002008B5034875
S31520004450034B4360203000F07BF808BD382701204D
S31520004460085C0020D0F8801010B500F11C0411B9AA
S31520004470204600F073F8204610BD70B532489AB039
S3152000448040F22551FFF761FC012811D1FFF7E8FE24
S31520004490D0F88030642B044600F11C050AD12B4845
S315200044A0FFF758FF2848002240F22551FFF72BFC42
S315200044B01AB070BD13B10344DB7E1BB10021284620
S315200044C000F04CF82048FFF78EFBC0B20A2814D023
S315200044D00D2812D00828D4F8803023D113B1013BFF
S315200044E0C4F88030D4F88030BBB1013BC4F88030AA
S315200044F09BB10820FFF7D0FE0FE00A20FFF7CCFE85
S315200045002046FFF7BBFC00246822694628461994FA
S3152000451000F0E8F9684600F01BF80021284600F074
S315200045201DF8C5E75A1E622A0AD8591C2344651865
S315200045301E7F2E772244157F1D771077C4F88010B2
S31520004540FFF7AAFEB4E700BF00100140E75B00209A
S31520004550436E13B1013B4366FAE77047436E632B04
S31520004560DFBFC154436E01334366D4BF0120002010
S31520004570704700007BB972B90029BEBF00204FF0FA
S31520004580004106E008BF00281CBF6FF000414FF035
S31520004590FF3000F09FB9ADF1080C6DE904CE00297B
S315200045A009DB002B1ADB00F035F8DDF804E0DDE945
S315200045B0022304B07047404261EB4101002B1BDB14
S315200045C000F028F8DDF804E0DDE9022304B04042DB
S315200045D061EB4101524263EB43037047524263EB66
S315200045E0430300F017F8DDF804E0DDE9022304B008
S315200045F0404261EB41017047524263EB430300F0B6
S3152000460009F8DDF804E0DDE9022304B0524263EB49
S31520004610430370472DE9F047089E0D4604468E4613
S31520004620002B40F082808A42174646D9B2FA82F29F
S315200046304AB1C2F1200105FA02F320FA01F19740AE
S3152000464041EA030E94404FEA1748230CBEFBF8FCC0
S31520004650B9B208FB1CEE43EA0E430CFB01F098426C
S315200046600AD9FB180CF1FF3580F01681984240F2EA
S315200046701381ACF1020C3B441B1AA4B2B3FBF8F035
S3152000468008FB103344EA034400FB01F1A14209D997
S315200046903C1900F1FF3380F00181A14240F2FE80F7
S315200046A002383C44641A40EA0C4000211EB1D44032
S315200046B00023C6E90043BDE8F08702B9FFDEB2FA5F
S315200046C082F2002A4FD1CB1B4FEA174E1FFA87F8EA
S315200046D00121B3FBFEFC250C0EFB1C3345EA0345EA
S315200046E008FB0CF3AB4207D97D190CF1FF3002D23F
S315200046F0AB4200F2E7808446ED1AA3B2B5FBFEF08A
S315200047000EFB105543EA054408FB00F8A04507D9DF
S315200047103C1900F1FF3302D2A04500F2D78018469B
S31520004720A4EB080440EA0C40C0E78B4208D9002ECF
S3152000473000F0AF800021C6E900050846BDE8F087F5
S31520004740B3FA83F100294BD1AB4202D3824200F265
S31520004750B780841A65EB030301209E46002EAAD05B
S31520004760C6E9004EA7E7C2F1200C01FA02F39740F2
S3152000477020FA0CF04FEA174E21FA0CFC1843BCFB2A
S31520004780FEF1050C0EFB11CC1FFA87F845EA0C4505
S3152000479001FB08F3AB4204FA02F409D97D1901F1B1
S315200047A0FF3C80F08B80AB4240F2888002393D444A
S315200047B0EB1A85B2B3FBFEF00EFB103345EA034538
S315200047C000FB08F3AB4207D97D1900F1FF3C71D2FB
S315200047D0AB426FD902383D44EB1A40EA014178E7F3
S315200047E0C1F1200C8B4022FA0CF71F4320FA0CF45F
S315200047F005FA01F34FEA174E25FA0CF51C43230C54
S31520004800B5FBFEF91FFA87F80EFB195543EA054555
S3152000481009FB08FAAA4502FA01F200FA01F308D9BF
S315200048207D1909F1FF3047D2AA4545D9A9F10209D8
S315200048303D44A5EB0A05A4B2B5FBFEF00EFB1055D0
S3152000484044EA054400FB08F8A04507D93C1900F1C5
S31520004850FF352DD2A0452BD902383C4440EA0940E9
S31520004860A4EB0804A0FB02894C45C6464D4619D345
S3152000487016D05EB1B3EB0E0264EB050404FA0CFC11
S31520004880CA404CEA0202CC40C6E900240021BDE819
S31520004890F087314630460EE7AC46EDE6184601E78E
S315200048A04345E6D2B8EB020E69EB07050138E0E78F
S315200048B02846D3E760468FE78146BAE7614677E721
S315200048C008464BE7ACF1020C3D4415E702383C4460
S315200048D026E700BF704700BF002301461A46184648
S315200048E0FCF726BC0A44914200F1FF3300D1704701
S315200048F010B511F8014B03F8014F9142F9D110BDC3
S3152000490002440346934200D1704703F8011BF9E79E
S315200049100268D207034605D4427802B1FFDE0120A1
S31520004920587070470020704700234370704701235A
S3152000493003607047004870471C5C002010B5034B8D
S315200049400360044600F012F8204610BD5C5C00208F
S3152000495010B50446FFF7F2FF204600F005F8204682
S3152000496010BD08B500F09DF900F0AAB97047704750
S3152000497000487047685C002000487047775C00203C
S3152000498010B50421044600F03BF9204610BD10B5B1
S315200049900421044600F034F9204610BD704710B5B6
S315200049A00421044600F02CF9204610BD704710B5AE
S315200049B00421044600F024F9204610BD70477047B4
S315200049C008B500F041F908B500F03EF910B5034BE3
S315200049D00360044600F0C0F8204610BDA05D00200C
S315200049E010B50446FFF7F2FF20460C2100F008F927
S315200049F0204610BD2DE9F041DDF818809045064689
S31520004A000F4615461C460BD0B0680368CDF81880B3
S31520004A101E6A2A4623463946B446BDE8F041604719
S31520004A20194600F060F80028EED00620BDE8F08197
S31520004A302DE9F14F0D461946DDE90A4BDDE90CA6B5
S31520004A4081461746984600F04EF890B1002D346006
S31520004A50377109DB2C44A2450CBF06240124B4710E
S31520004A60002001B0BDE8F08F0235F9D10123B371E2
S31520004A70F6E7544506D15946484600F034F808B1C1
S31520004A807771EDE7D9F808000368CDE90CA6CDE9E2
S31520004A900A4BDC693A4643462946A44601B0BDE89E
S31520004AA0F04F60472DE9F04107460C4615461E4655
S31520004AB000F085F848B9B86803689F692A463346E6
S31520004AC02146BC46BDE8F0416047BDE8F08170470D
S31520004AD0002070470020704710B50821044600F0DA
S31520004AE08FF8204610BD814208B50ED04068037865
S31520004AF02A2B0CD049680B782A2B08BF013100F0ED
S31520004B0049FAB0FA80F0400908BD0120FCE70020F0
S31520004B10FAE7FFF7E8BF7FB500241023CDE902347A
S31520004B20036800949E698DF8044015466B4612680A
S31520004B30B0479DF8043003F00603062B03BF009B05
S31520004B402B600120204604B070BD0098904214BF0F
S31520004B50012006207047000010B5034B0360044671
S31520004B60FFF7B5FF204610BD345E002010B5044681
S31520004B70FFF7F2FF2046082100F042F8204610BD3C
S31520004B802DE9F0411F46DDE90834DDF81880984507
S31520004B900646154607D10799FFF7A5FF18B1657197
S31520004BA00020BDE8F08139463046FFF79CFF0028FB
S31520004BB0F6D00123C4F800802571A371F0E738B53B
S31520004BC015461C46FFF78FFF20B10823E360062316
S31520004BD02560237138BD2DE9F04105460C46164661
S31520004BE01F46FFF780FF48B9032F07D823683246B0
S31520004BF0294620465B69BDE8F0411847BDE8F081AB
S31520004C00FFF7B2BE08B5804700F04BF8084BBFF35C
S31520004C105B8F002808BF1846064B024653E8000F54
S31520004C2043E800210029F9D1BFF35B8F704700BF0D
S31520004C30A34C002000510020024B1868BFF35B8F65
S31520004C40704700BF0051002008B5FFF7F5FFFFF7BA
S31520004C50D9FF08B58047FFF7F7FF0000084BBFF3E1
S31520004C605B8F002808BF1846064B024653E8000F04
S31520004C7043E800210029F9D1BFF35B8F704700BFBD
S31520004C80494C0020FC500020024B1868BFF35B8F74
S31520004C90704700BFFC50002008B5FFF7F5FFFFF76F
S31520004CA0D8FF08B5062000F043F9012000F01CFAD1
S31520004CB0024B0146186800F059B800BF0451002085
S31520004CC0024B0146186800F003B800BF04510020CB
S31520004CD038B50546002945D051F8043C0C1F002B59
S31520004CE0B8BFE41800F060F91F4A1368104633B9BC
S31520004CF0636014602846BDE8384000F05BB9A342E3
S31520004D000BD921686218934204BF1A685B686360F6
S31520004D1004BF521822600460ECE71A465B680BB1A8
S31520004D20A342FAD911685018A0420BD12068014439
S31520004D30501883421160DDD118685B6853600144C6
S31520004D401160D7E702D90C232B60D3E720682118FE
S31520004D508B4204BF19685B68636004BF0918216031
S31520004D605460C7E738BD00BFC0270120F8B5CD1C69
S31520004D7025F0030508350C2D38BF0C25002D0646D9
S31520004D8001DBA94203D90C2333600020F8BD00F0D3
S31520004D900BF921490A6814469CB9204F3B6823B970
S31520004DA02146304600F03CF838602946304600F06F
S31520004DB037F8431C23D10C233360304600F0FAF831
S31520004DC0E3E723685B1B17D40B2B03D923601C4412
S31520004DD0256004E06368A2420CBF0B605360304636
S31520004DE000F0E8F804F10B00231D20F00700C21A9A
S31520004DF0CCD01B1AA350C9E722466468CCE7C41C52
S31520004E0024F00304A042E3D0211A304600F008F82B
S31520004E100130DDD1CFE700BFC0270120C427012004
S31520004E2038B5064D0023044608462B6000F04EF99F
S31520004E30431C02D12B6803B1236038BDCC27012047
S31520004E4038B5446C054654B98021FFF78FFF686456
S31520004E5038B1031F7C3043F8044F8342FBD1002036
S31520004E6038BD4FF0FF30FBE71F2970B504460D46CD
S31520004E70164604D9162303604FF0FF3006E0436C34
S31520004E802BB1636C53F8250043F8256070BDFFF7FE
S31520004E90D7FF0028F5D0EFE71F2938B504460D4681
S31520004EA004D9162303604FF0FF3038BD426C12B18F
S31520004EB052F821304BB9204600F06AF82A460146BE
S31520004EC02046BDE8384000F051B8012B0AD0591CC5
S31520004ED003D1162303600120E7E7002442F825408A
S31520004EE0284698470020E0E71F2938B504460D4696
S31520004EF002D94FF0FF3038BD436C2BB1626C52F8AB
S31520004F00253033B90120F6E7FFF79AFF0028F5D0C0
S31520004F10EFE7591C08D0012B08D00024284642F878
S31520004F20254098472046E6E70220E4E70320E2E70B
S31520004F30024B01461868FFF7AFBF00BF045100209F
S31520004F40024B0A4601461868FFF78EBF045100201F
S31520004F50014B1868FFF774BF04510020024B01462D
S31520004F601868FFF7C1BF00BF0451002038B5074DB0
S31520004F7000230446084611462B6000F09FF8431C88
S31520004F8002D12B6803B1236038BD00BFCC27012096
S31520004F9000F08CB810F8012B11F8013B012A28BF2C
S31520004FA09A42F7D0D01A7047014800F078B800BF6F
S31520004FB0D4270120014800F078B800BFD42701206B
S31520004FC038B50C460968054609B1FFF7F9FF2146B1
S31520004FD02846BDE83840FFF77BBE00002C4B1B68F7
S31520004FE0834270B5044651D0436A43B1DB68002B37
S31520004FF04AD1636A196811B12046FFF769FE6169D3
S3152000500011B12046FFF764FE616A11B12046FFF711
S315200050105FFEA16B11B12046FFF75AFEE16B11B17D
S315200050202046FFF755FE216C11B12046FFF750FEB2
S31520005030E16D11B12046FFF74BFEA16D11B120465F
S31520005040FFF746FE616B11B12046FFF741FEA369CB
S31520005050E3B1A36A20469847A16CB9B12046BDE8C2
S315200050607040FFF7ADBF495941B90435636A802DB9
S31520005070D968F8D12046FFF72BFEBAE70E682046FE
S31520005080FFF726FE3146EFE70025EFE770BD00BFAC
S31520005090045100207047704770477047704770472B
S315200050A0012070470120704770477047024B5822F5
S315200050B01A604FF0FF307047CC270120024B582250
S315200050C01A604FF0FF307047CC270120044A05496B
S315200050D01368002B08BF0B4618441060184670470B
S315200050E0C827012035110020FEE700BF0000000080
S315200050F0010203040102030406070809494C0020A3
S31520005100A34C0020085100200000000000000000F1
S315200051100000000000000000000000000000000069
S315200051200000000000000000000000000000000059
S315200051300000000000000000000000000000000049
S315200051400000000000000000000000000000000039
S315200051500000000000000000000000000000000029
S3152000516000000000000000004572726F722E204180
S315200051706C61726D556E69742070726576696F7593
S31520005180736C7920637265617465642E2054686936
S3152000519073206F6E6520697320696E76616C696411
S315200051A000416C61726D20756E6974207374617232
S315200051B0746564004572726F722E20416C61726D47
S315200051C020696E64696361746F727320636F756C96
S315200051D064206E6F74206265206164646564004596
S315200051E072726F722E20416C61726D556E697420D9
S315200051F0696E76616C696400416C61726D207374AE
S315200052006174757320776173207468652073616D8E
S31520005210652E2045786974696E67004C6F63616CF2
S3152000522020616C61726D206973206E6F77206163D7
S3152000523074697665004C6F63616C20616C61726D78
S31520005240206973206E6F7720696E61637469766555
S31520005250004572726F722E2043656E7472616C20E7
S31520005260756E69742063616E6E6F742075706461EB
S31520005270746520676C6F62616C20616C61726D2051
S315200052806F6E20616E6F7468657220756E6974002A
S31520005290476C6F62616C20616C61726D206973204E
S315200052A06E6F77206163746976652E20416C657216
S315200052B074696E672063656E7472616C20756E69A1
S315200052C07400476C6F62616C20616C61726D20772F
S315200052D061732073657420696E61637469766520D5
S315200052E06C6F63616C6C7900476C6F62616C2061D6
S315200052F06C61726D20737461747573206163746957
S31520005300766500476C6F62616C20616C61726D20FE
S3152000531073746174757320696E6163746976650050
S31520005320496E76616C696420416C61726D556E6957
S31520005330742E204E6F7420726573706F6E64696E62
S315200053406720746F2043414E206D657373616765D6
S3152000535073004572726F722E2053746172744365A6
S315200053606E7472616C416C61726D207265636569E1
S31520005370766564206F6E20706572697068657261EB
S315200053806C20756E6974004572726F722E2053748C
S315200053906F70476C6F62616C416C61726D207265D3
S315200053A0636569766564206F6E2063656E747261CD
S315200053B06C20756E6974000000000000000000007B
S315200053C09F3D0020993D00209F3D00209F3D0020CD
S315200053D0DD010020E4FFFFFF000000009B3D0020D0
S315200053E04902002043616E6E6F742063726561749A
S315200053F065206E657720636F6E7461637421005536
S315200054006E61636B2764206D6573736167652062C7
S3152000541075666665722069732066756C6C212043FB
S31520005420616E6E6F742073746F7265206D65737311
S3152000543061676520666F7220706F74656E7469612E
S315200054406C20726573656E6400596F752063616E9A
S315200054506E6F742073656E642061206D6573736151
S31520005460676520746F20796F757273656C66004E60
S31520005470656564206120756E69742D494420666FC8
S315200054807220646F6F7220756E697400556E697430
S315200054902069643A20000A0043414E2077697468E7
S315200054A0207468697320494420616C72656164794F
S315200054B020696E697469617465642E2052657475FD
S315200054C0726E696E672E2E2E0043414E20233120A8
S315200054D0496E6974206661696C6564210043414E9A
S315200054E020233120496E6974207375636365737355
S315200054F066756C2100526573656E64696E672075EA
